:100000000C943E010C945D010C945D010C945D0117
:100010000C945D010C945D010C945D010C945D01E8
:100020000C945D010C945D010C945D010C945D01D8
:100030000C945D010C945D010C945D010C945D01C8
:100040000C945D010C945D010C945D010C945D01B8
:100050000C945D010C945D010C945D010C945D01A8
:100060000C945D010C945D010C945D010C945D0198
:100070000C945D010C945D010C945D010C945D0188
:100080000C945D010C945D010C945D010000000076
:100090000000002F00000007000700147F147F14E9
:1000A000242A7F2A12323408162636495522500057
:1000B00005030000001C2241000041221C0014081E
:1000C0003E081408083E08080000503000101010C8
:1000D0001010006060000020100804023E514945E5
:1000E0003E00427F400042615149462141454B312B
:1000F0001814127F1027454545393C4A49493001BB
:10010000710905033649494936064949291E003611
:100110003600000056360000081422410014141462
:1001200014140041221408020151090632495951A0
:100130003E7E1111117E7F494949363E414141229F
:100140007F4141221C7F494949417F090909013EFC
:100150004149497A7F0808087F00417F41002040DB
:10016000413F017F081422417F404040407F020C04
:10017000027F7F0408107F3E4141413E7F0909090B
:10018000063E4151215E7F091929464649494931B8
:1001900001017F01013F4040403F1F2040201F3FA1
:1001A0004038403F63140814630708700807615122
:1001B000494543007F414100552A552A5500414198
:1001C0007F0004020102044040404040000102045C
:1001D0000020545454787F484444383844444420E0
:1001E000384444487F3854545418087E0901020C9E
:1001F0005252523E7F0804047800447D4000204063
:10020000443D007F1028440000417F40007C0418DA
:1002100004787C0804047838444444387C1414146A
:1002200008081414187C7C0804040848545454200A
:10023000043F4440203C4040207C1C2040201C3C8B
:100240004030403C44281028440C5050503C4464FA
:10025000544C44007F3E1C08081C3E7F00087C7EF6
:100260007C08103E7E3E103E3E3E3E3E007F3E1CE1
:10027000080E1111110E7F000000000011241FBE96
:10028000CFEFD0E1DEBFCDBF11E0A0E0B1E0E2E70B
:10029000FAE000E00BBF02C007900D92A030B1075A
:1002A000D9F719E0A0E0B1E001C01D92A430B10778
:1002B000E1F70E94D7020C9437050C9400002F92AE
:1002C0003F924F925F926F927F928F929F92AF92E6
:1002D000BF92CF92DF92EF92FF920F931F93DF9323
:1002E000CF9300D000D0CDB7DEB73C014B018A01DF
:1002F00031E0432E512C441A550ACA01880F991F28
:1003000022273327281B390B3A832983BA01680D2A
:10031000791DC3010E945603B401601B710BC30118
:100320000E945603C801860D971DB4010E94560312
:10033000C301801B910BB4010E945603580181E058
:10034000282E312C1C821B8254C057FC0AC00894F2
:10035000A108B10889819A8102969A838983480EFF
:10036000591EEB81FC813196FC83EB8322E030E067
:10037000220E331E420C531C6F01C60CD71C850184
:10038000080D191DC601B8010E94560373018B8127
:100390009C81E81AF90AC701B8010E94560384013A
:1003A0000A191B09C601B8010E945603C701B8010A
:1003B0000E9456036501C60CD71C0B811C81080DD9
:1003C000191DC601B8010E9456037301EA18FB0803
:1003D000C701B8010E9456038401EB81FC810E1B0A
:1003E0001F0BC601B8010E945603C701B8010E9445
:1003F00056032B813C812A153B050CF4A6CF0F90A8
:100400000F900F900F90CF91DF911F910F91FF9060
:10041000EF90DF90CF90BF90AF909F908F907F90A4
:100420006F905F904F903F902F900895AF92BF9242
:10043000CF92DF92EF92FF920F931F93CF93DF93B0
:100440005C018B016A0179014817590714F46501B1
:100450005A01E016F1061CF4C70178018C01E50190
:1004600009C0CE01B8010E945603CE01B7010E9417
:1004700056032196CC16DD06A4F7E80109C0C50194
:10048000BE010E945603C601BE010E94560321967A
:10049000EC16FD06A4F7DF91CF911F910F91FF900D
:1004A000EF90DF90CF90BF90AF900895AF92BF9242
:1004B000CF92DF92EF92FF920F931F93CF93DF9330
:1004C0008C01EB015A017901CC24DD241EC081E0AE
:1004D000E816F10411F4219611C082E0E816F10447
:1004E00059F083E0E816F10411F4219705C084E087
:1004F000E816F10419F421960F5F1F4FC801BE01E1
:100500000E9456030894C11CD11CCA14DB04FCF2DF
:10051000DF91CF911F910F91FF90EF90DF90CF90DF
:10052000BF90AF90089580E090E065E170E040E812
:1005300050E022E030E00E94560280E090E06AE263
:1005400070E040E850E022E030E00E9456028AE28B
:1005500090E060E070E040E850E021E030E00E9490
:10056000560284E590E060E070E040E850E021E071
:1005700030E00E9456020895EF92FF920F931F936E
:100580007C018B014EE050E024E030E00E945602F6
:10059000015F1F4FC701B8014EE050E023E030E09B
:1005A0000E9456021F910F91FF90EF90089580EEE8
:1005B0008ABB0E9431040E94D6030E94930282E308
:1005C00090E06BE270E00E94BC0280E090E0089551
:1005D0004530510519F40E94BC020895463051057A
:1005E00021F445E450E00E945F010895982F84B300
:1005F0008C6084BBA998613011F4AA9A01C0AA98B2
:1006000027E030E0492F50E0CA01022E02C0959544
:1006100087950A94E2F780FF02C0AB9A01C0AB98BD
:10062000AC9AAC98215030408FEF2F3F380761F7DC
:10063000A99A84B3837F84BB85B38C6085BB0895FE
:1006400080910001806B60E00E94F60280910209B7
:100650008F7060E00E94F602809102099091030978
:10066000807F907024E0959587952A95E1F78061C9
:1006700060E00E94F6020895809302091092030937
:1006800060930001109201010E942003089596E0FA
:10069000899FC001112490930309809302096093FC
:1006A0000001109201010E9420030895EF92FF9231
:1006B0000F931F93CF93DF93EC019B01CB0168E075
:1006C00070E00E941005FB01C90168E070E00E9423
:1006D000100521E030E003C0220F331F01971816E8
:1006E0001906D4F38E0153E0000F111F5A95E1F75C
:1006F0000E0F1F1F000F111F0E5F1E4FD801ED9030
:10070000FC90E22AF32AC093020910920309E093B5
:100710000001109201010E9420038E2D61E00E94D1
:10072000F602F801F182E082DF91CF911F910F91E3
:10073000FF90EF9008950F931F93CF93DF93082FAF
:100740000E94200385E0089F80011124E801C45124
:10075000D0400B59104004571F4FFE018491880F61
:1007600061E00E94F6022196C017D107B1F780E040
:1007700061E00E94F60280910209909103090696B9
:100780009093030980930209DF91CF911F910F91FC
:100790000895CF93DF93EC0103C021960E949B0341
:1007A00088818823D1F7DF91CF910895EF92FF924E
:1007B0000F931F93CF93DF93EE24FF248E2D806B36
:1007C00060E00E94F60280E160E00E94F60280E0B4
:1007D00060E00E94F602E701CC0FDD1FCE5FDE4F26
:1007E00000E010E080E061E00E94F60219821882C9
:1007F0000F5F1F4F609600381105A1F70894E11CA8
:10080000F11C88E0E816F104C9F680EB60E00E9474
:10081000F60280E160E00E94F60280E060E00E9463
:10082000F60210920309109202091092010110922F
:100830000001DF91CF911F910F91FF90EF900895EC
:100840001F93182F81E260E00E94F602812F8068DA
:1008500060E00E94F60280E260E00E94F6021F91D2
:100860000895A89A84B38F6184BB86EA9EE0FC0158
:100870003197F1F7A898FC013197F1F7A89A019701
:10088000F1F7A99A8BEE60E00E94F60283E260E045
:100890000E94F60281E860E00E94F60284E660E0D1
:1008A0000E94F6028FEA60E00E94F6028CEC60E0A3
:1008B0000E94F6020E94D6030895DF92EF92FF9203
:1008C0000F931F93CF93DF93D82EFB017A01CB01B7
:1008D00067E070E00E941005009719F401E010E055
:1008E00007C001E010E002C0000F111F8A95E2F777
:1008F000CF0167E070E00E941005862F806B60E0FA
:100900000E94F60280E160E00E94F6028D2D60E018
:100910000E94F602C0E0D0E005C0802F61E00E9496
:10092000F6022196CE15DF05C4F3DF91CF911F911A
:100930000F91FF90EF90DF9008956F927F928F92CA
:100940009F92AF92BF92CF92DF92EF92FF920F935E
:100950001F93CF93DF933C01EB015A01CB0167E07A
:1009600070E00E9410057C01E0E0F0E09701265065
:10097000304097FF3196EE0FFF1F8217930711F05B
:100980000197F7CFCE0167E070E00E9410056B0180
:100990004F01880C991C30C0802F806B60E00E9452
:1009A000F60280E160E00E94F60280E060E00E94D2
:1009B000F602C0E0D0E0C615D70589F4882D61E0C5
:1009C0000E94F602AE18BF080894C11CD11C0AE0B0
:1009D00010E0C1E8D0E0EFEF8E2E912C04C080E053
:1009E00061E00E94F6022196C038D10524F30F5F22
:1009F0001F4F0830110584F2A114B10411F08601D3
:100A0000F8CFDF91CF911F910F91FF90EF90DF9082
:100A1000CF90BF90AF909F908F907F906F900895F0
:100A200097FB092E07260AD077FD04D00CD006D0FC
:100A300000201AF4709561957F4F0895F6F7909510
:100A400081959F4F0895AA1BBB1B51E107C0AA1FA8
:100A5000BB1FA617B70710F0A61BB70B881F991F5F
:100A60005A95A9F780959095BC01CD010895F89409
:020A7000FFCFB6
:00000001FF
