:100000000C943E010C945D010C945D010C945D0117
:100010000C945D010C945D010C945D010C945D01E8
:100020000C945D010C945D010C945D010C945D01D8
:100030000C945D010C945D010C945D010C945D01C8
:100040000C945D010C945D010C945D010C945D01B8
:100050000C945D010C945D010C945D010C945D01A8
:100060000C945D010C945D010C945D010C945D0198
:100070000C945D010C945D010C945D010C945D0188
:100080000C945D010C945D010C945D010000000076
:100090000000002F00000007000700147F147F14E9
:1000A000242A7F2A12323408162636495522500057
:1000B00005030000001C2241000041221C0014081E
:1000C0003E081408083E08080000503000101010C8
:1000D0001010006060000020100804023E514945E5
:1000E0003E00427F400042615149462141454B312B
:1000F0001814127F1027454545393C4A49493001BB
:10010000710905033649494936064949291E003611
:100110003600000056360000081422410014141462
:1001200014140041221408020151090632495951A0
:100130003E7E1111117E7F494949363E414141229F
:100140007F4141221C7F494949417F090909013EFC
:100150004149497A7F0808087F00417F41002040DB
:10016000413F017F081422417F404040407F020C04
:10017000027F7F0408107F3E4141413E7F0909090B
:10018000063E4151215E7F091929464649494931B8
:1001900001017F01013F4040403F1F2040201F3FA1
:1001A0004038403F63140814630708700807615122
:1001B000494543007F414100552A552A5500414198
:1001C0007F0004020102044040404040000102045C
:1001D0000020545454787F484444383844444420E0
:1001E000384444487F3854545418087E0901020C9E
:1001F0005252523E7F0804047800447D4000204063
:10020000443D007F1028440000417F40007C0418DA
:1002100004787C0804047838444444387C1414146A
:1002200008081414187C7C0804040848545454200A
:10023000043F4440203C4040207C1C2040201C3C8B
:100240004030403C44281028440C5050503C4464FA
:10025000544C44007F3E1C08081C3E7F00087C7EF6
:100260007C08103E7E3E103E3E3E3E3E007F3E1CE1
:10027000080E1111110E7F000000000011241FBE96
:10028000CFEFD0E1DEBFCDBF11E0A0E0B1E0E2E40E
:10029000FAE000E00BBF02C007900D92A030B1075A
:1002A000D9F719E0A0E0B1E001C01D92A430B10778
:1002B000E1F70E9456020C941F050C9400002F9247
:1002C0003F924F925F926F927F928F929F92AF92E6
:1002D000BF92CF92DF92EF92FF920F931F93DF9323
:1002E000CF9300D000D0CDB7DEB73C014B018A01DF
:1002F00031E0432E512C441A550ACA01880F991F28
:1003000022273327281B390B3A832983BA01680D2A
:10031000791DC3010E94F502B401601B710BC3017A
:100320000E94F502C801860D971DB4010E94F502D6
:10033000C301801B910BB4010E94F502580181E0BA
:10034000282E312C1C821B8254C057FC0AC00894F2
:10035000A108B10889819A8102969A838983480EFF
:10036000591EEB81FC813196FC83EB8322E030E067
:10037000220E331E420C531C6F01C60CD71C850184
:10038000080D191DC601B8010E94F50273018B8189
:100390009C81E81AF90AC701B8010E94F50284019C
:1003A0000A191B09C601B8010E94F502C701B8016C
:1003B0000E94F5026501C60CD71C0B811C81080D3B
:1003C000191DC601B8010E94F5027301EA18FB0865
:1003D000C701B8010E94F5028401EB81FC810E1B6C
:1003E0001F0BC601B8010E94F502C701B8010E94A7
:1003F000F5022B813C812A153B050CF4A6CF0F900A
:100400000F900F900F90CF91DF911F910F91FF9060
:10041000EF90DF90CF90BF90AF909F908F907F90A4
:100420006F905F904F903F902F900895AF92BF9242
:10043000CF92DF92EF92FF920F931F93CF93DF93B0
:100440005C018B016A0179014817590714F46501B1
:100450005A01E016F1061CF4C70178018C01E50190
:1004600009C0CE01B8010E94F502CE01B7010E9479
:10047000F5022196CC16DD06A4F7E80109C0C501F6
:10048000BE010E94F502C601BE010E94F50221963E
:10049000EC16FD06A4F7DF91CF911F910F91FF900D
:1004A000EF90DF90CF90BF90AF90089580EE8ABB21
:1004B0000E94D0030E94750384E190E06AE070E03E
:1004C0000E94F50284E190E06BE070E00E94F5028A
:1004D00084E190E062E170E00E94F5028EE190E03C
:1004E0006AE070E00E94F5028EE190E06BE070E05F
:1004F0000E94F5028EE190E062E170E00E94F50258
:1005000088E290E068E270E04AE050E00E945F011B
:100510008AE090E06AE070E044E150E024E130E0FD
:100520000E94160280E090E00895982F84B38C60BA
:1005300084BBA998613011F4AA9A01C0AA9827E057
:1005400030E0492F50E0CA01022E02C095958795F0
:100550000A94E2F780FF02C0AB9A01C0AB98AC9A54
:10056000AC98215030408FEF2F3F380761F7A99AA0
:1005700084B3837F84BB85B38C6085BB08958091F1
:100580000001806B60E00E949502809102098F70EB
:1005900060E00E9495028091020990910309807F9A
:1005A000907024E0959587952A95E1F7806160E049
:1005B0000E949502089580930209109203096093A6
:1005C0000001109201010E94BF02089596E0899FE8
:1005D000C0011124909303098093020960930001E4
:1005E000109201010E94BF020895EF92FF920F93B3
:1005F0001F93CF93DF93EC019B01CB0168E070E088
:100600000E94F804FB01C90168E070E00E94F80450
:1006100021E030E003C0220F331F0197181619069E
:10062000D4F38E0153E0000F111F5A95E1F70E0F1E
:100630001F1F000F111F0E5F1E4FD801ED90FC9081
:10064000E22AF32AC093020910920309E093000101
:10065000109201010E94BF028E2D61E00E9495025E
:10066000F801F182E082DF91CF911F910F91FF900D
:10067000EF9008950F931F93CF93DF93082F0E945D
:10068000BF0285E0089F80011124E801C451D040D9
:100690000B59104004571F4FFE018491880F61E0F1
:1006A0000E9495022196C017D107B1F780E061E062
:1006B0000E949502809102099091030906969093F9
:1006C000030980930209DF91CF911F910F91089543
:1006D000CF93DF93EC0103C021960E943A038881F7
:1006E0008823D1F7DF91CF910895EF92FF920F9376
:1006F0001F93CF93DF93EE24FF248E2D806B60E059
:100700000E94950280E160E00E94950280E060E036
:100710000E949502E701CC0FDD1FCE5FDE4F00E0A7
:1007200010E080E061E00E949502198218820F5F5C
:100730001F4F609600381105A1F70894E11CF11CC9
:1007400088E0E816F104C9F680EB60E00E949502AB
:1007500080E160E00E94950280E060E00E949502E6
:1007600010920309109202091092010110920001E7
:10077000DF91CF911F910F91FF90EF9008951F93FC
:10078000182F81E260E00E949502812F806860E06E
:100790000E94950280E260E00E9495021F910895F8
:1007A000A89A84B38F6184BB86EA9EE0FC013197EE
:1007B000F1F7A898FC013197F1F7A89A0197F1F7A2
:1007C000A99A8BEE60E00E94950283E260E00E94AD
:1007D000950281E860E00E94950284E660E00E9454
:1007E00095028FEA60E00E9495028CEC60E00E9426
:1007F00095020E9475030895DF92EF92FF920F9386
:100800001F93CF93DF93D82EFB017A01CB0167E0D2
:1008100070E00E94F804009719F401E010E007C0AE
:1008200001E010E002C0000F111F8A95E2F7CF012E
:1008300067E070E00E94F804862F806B60E00E9401
:10084000950280E160E00E9495028D2D60E00E949B
:100850009502C0E0D0E005C0802F61E00E949502C3
:100860002196CE15DF05C4F3DF91CF911F910F9133
:10087000FF90EF90DF9008956F927F928F929F92FA
:10088000AF92BF92CF92DF92EF92FF920F931F939E
:10089000CF93DF933C01EB015A01CB0167E070E09D
:1008A0000E94F8047C01E0E0F0E09701265030401F
:1008B00097FF3196EE0FFF1F8217930711F00197F4
:1008C000F7CFCE0167E070E00E94F8046B014F01A2
:1008D000880C991C30C0802F806B60E00E949502CC
:1008E00080E160E00E94950280E060E00E94950255
:1008F000C0E0D0E0C615D70589F4882D61E00E94DC
:100900009502AE18BF080894C11CD11C0AE010E083
:10091000C1E8D0E0EFEF8E2E912C04C080E061E0C2
:100920000E9495022196C038D10524F30F5F1F4F16
:100930000830110584F2A114B10411F08601F8CF3A
:10094000DF91CF911F910F91FF90EF90DF90CF90AB
:10095000BF90AF909F908F907F906F900895282FB9
:10096000FB0190E0803891052CF081E090E09183CC
:1009700080832058822F90E0803491052CF081E014
:1009800090E0938382832054822F90E080972CF014
:1009900081E090E0958384832052822F90E04097FD
:1009A0002CF081E090E0978386832051822F90E0A5
:1009B00008972CF081E090E0918780872850822F63
:1009C00090E004972CF081E090E093878287245098
:1009D000822F90E002972CF081E090E09587848749
:1009E0002250222321F081E090E0978786870895A6
:1009F00097FB092E07260AD077FD04D00CD006D02D
:100A000000201AF4709561957F4F0895F6F7909540
:100A100081959F4F0895AA1BBB1B51E107C0AA1FD8
:100A2000BB1FA617B70710F0A61BB70B881F991F8F
:100A30005A95A9F780959095BC01CD010895F89439
:020A4000FFCFE6
:00000001FF
